:020000020000FC
:1000000013C011C010C00FC03FC10DC00CC00BC049
:100010000AC011C108C007C006C005C004C003C0A3
:1000200002C001C000C0189564B700E004BF99E1A8
:1000300001C0662770E008E101BD71BD0FE50DBF8D
:1000400004E00EBF06E008BB00E305BB06E002BB10
:1000500006E007BB00E004BB0EE301BB9398949855
:100060009598929AC29AC19A3CD10027039506FDB1
:1000700047C1E4E9F2EF38D1B099F8CFA398A2983C
:1000800000E00FBD02E00EBD01E003BF2AD107E092
:1000900005BD01E409BF06E407B907EE06B9332739
:1000A000789425D162FF14C0ACE2B1E0C4E8D3E09B
:1000B000EFD0E0E01CD1ACE2B1E0C8EED3E0E8D094
:1000C000E0E015D1ACE2B1E0CCE4D4E0E1D028C06E
:1000D00061FF0DC0ACE2B1E0C8EED3E0D9D0E0E002
:1000E00006D1ACE2B1E0C4E8D3E0D2D019C060FFE1
:1000F00006C0A4EFB1E0C8EED3E0CAD011C063FFE0
:100100000FC0A4E6B0E0C0EBD4E0C2D0A8ECB0E0F1
:10011000C8EED3E0BDD0A4E6B0E0C8E7D5E0B8D0E3
:10012000A39AA29808E101BD0DE001BD1FC070E0D7
:1001300065D0C8ECD5E0AC17BD07C8F3C0EFD5E07B
:10014000AC17BD07A0F7C4EFD1E0A5E0B0E0A0D0A8
:1001500073957A3069F774E1C0EDD7E0A4E1B0E0BF
:1001600097D0EF977A95D1F7EE27C1D047D0AC5D05
:10017000B540B595A795B595A795C8ECD0E0AC1757
:10018000BD0734F0C8E3DFEFAC17BD070CF451CF67
:10019000CFE7D0E0AC17BD0714F0AFE7B0E0C1E89F
:1001A000DFEFAC17BD0714F4A1E8BFEFC4B1D5B1C0
:1001B000EEE5F1E0CE17DF0790F49395993180F0EA
:1001C0009A953327A6E9B0E0C0EBD4E061D0A4E66D
:1001D000B0E0C0EDD7E05CD08AD089D0C7CF9927F6
:1001E0000A2F031B19F224F0003128F000E103C0AC
:1001F000003F08F400EFA29A300FB8CF72D0B09948
:10020000FECFB098B09BFECF00270DBD0CBDB099BE
:10021000FECFACB5BDB5B595A7950895C4B1D5B120
:10022000C753D340D595C795D595C795D595C7954F
:10023000AC1BBD0B08955FB740E842BF1395103863
:10024000D9F41127232F20313CF4203F2CF0A29821
:10025000939A959A2FE716C0A29A222332F0929889
:10026000000000000000959A0DC02195C198000083
:1002700000000000939A06C0121720F093989598FA
:10028000929AC19A5FBF1895815009F01895D1CE06
:10029000F89493989598929AC19AE4E6F0E024D065
:1002A00020D09298000000000000959AE8ECF0E061
:1002B0001BD093989598929AC19AFE0115D0C19837
:1002C000000000000000939AE8ECF0E00DD0939855
:1002D0009598929AC19AFE0107D0119709F77894E0
:1002E0000895A89584E108953197F1F708950BEEEC
:1002F000FBE0FA95F1F70A95D9F7EA95C1F7089569
:10030000A8EEB3E0C4ECD9E0C3DFF89470E0A895A0
:1003100008E101BD71BD939894989598929AC29AFC
:0E032000C19AE5DF002707BB04BB01BB69CC17
:00000001FF
