:020000020000FC
:1000000013C011C010C00FC038C10DC00CC00BC050
:100010000AC00CC108C007C006C005C004C003C0A8
:1000200002C001C000C0189564B700E004BF99E1A8
:1000300001C0662770E008E101BD71BD0FE50DBF8D
:1000400004E00EBF00E008BB08E205BB00E102BB14
:1000500001E007BB08E304BB00E301BB9598AC9843
:10006000C098949AAD9AAB9A35D10027039506FDB6
:1000700040C1E4E9F2EF31D18299F8CF00E00FBD41
:1000800002E00EBD01E003BF25D107E005BD01E49C
:1000900009BF01E407B907EE06B93327789420D1E8
:1000A00062FF14C0ACE2B1E0C4E8D3E0EAD0E0E023
:1000B00017D1ACE2B1E0C8EED3E0E3D0E0E010D17C
:1000C000ACE2B1E0CCE4D4E0DCD028C061FF0DC0EC
:1000D000ACE2B1E0C8EED3E0D4D0E0E001D1ACE2D4
:1000E000B1E0C4E8D3E0CDD019C060FF06C0A4EFF2
:1000F000B1E0C8EED3E0C5D011C063FF0FC0A4E6E5
:10010000B0E0C0EBD4E0BDD0A8ECB0E0C8EED3E0E6
:10011000B8D0A4E6B0E0C8E7D5E0B3D008E101BDAF
:100120000DE001BD1FC070E064D0C8ECD5E0AC1795
:10013000BD07C8F3C0EFD5E0AC17BD07A0F7C4EF0B
:10014000D1E0A5E0B0E09DD073957A3069F774E115
:10015000C0EDD7E0A4E1B0E094D0EF977A95D1F765
:10016000EE27BED046D0AC5DB540B595A795B59508
:10017000A795C8ECD0E0AC17BD0734F0C8E3DFEFBB
:10018000AC17BD070CF455CFCFE7D0E0AC17BD07D7
:1001900014F0AFE7B0E0C1E8DFEFAC17BD0714F42F
:1001A000A1E8BFEFC4B1D5B1E7EDF1E0CE17DF07AD
:1001B00090F09395993180F09A953327A6E9B0E0B5
:1001C000C0EBD4E05ED0A4E6B0E0C0EDD7E059D0FB
:1001D00087D086D0C7CF99270A2F031B19F224F0A6
:1001E000003128F000E103C0003F08F400EF300FB9
:1001F000B9CF70D08299FECF8298829BFECF002724
:100200000DBD0CBD8299FECFACB5BDB5B595A7951A
:100210000895C4B1D5B1C753D340D595C795D595E9
:10022000C795D595C795AC1BBD0B08955FB740E842
:1002300042BF13951038C9F41127232F203134F40D
:10024000203F24F0959AC09A2FE715C0222332F060
:100250009498000000000000C09A0DC02195AB9852
:10026000000000000000959A06C0121720F0959833
:10027000C098949AAB9A5FBF1895815009F0189571
:10028000D8CEF8949598C098949AAB9AE4E6F0E0AA
:1002900024D020D09498000000000000C09AE8EC20
:1002A000F0E01BD09598C098949AAB9AFE0115D0B7
:1002B000AB98000000000000959AE8ECF0E00DD04B
:1002C0009598C098949AAB9AFE0107D0119709F7B8
:1002D00078940895A89584E108953197F1F70895E9
:1002E0000BEEFBE0FA95F1F70A95D9F7EA95C1F71D
:1002F0000895A8EEB3E0C4ECD9E0C3DFF89470E051
:10030000A89508E101BD71BD9598AC98C098949AE4
:10031000AD9AAB9AE5DF002707BB04BB01BB70CCED
:00000001FF
